:020000041000EA
:1000000000B5324B212058609868022188439860DF
:10001000D860186158612E4B002199600221596106
:100020000121F02299502B49196001219960352056
:1000300000F044F80222904214D00621196600F024
:1000400034F8196E01211966002018661A6600F04E
:100050002CF8196E196E196E052000F02FF8012189
:100060000842F9D1002199601B49196000215960AB
:100070001A491B48016001219960EB211966A021F2
:10008000196600F012F800219960164914480160C1
:100090000121996001BC002800D000471248134993
:1000A000086003C880F30888084703B5996A0420EC
:1000B0000142FBD001200142F8D103BD02B5186610
:1000C0001866FFF7F2FF186E186E02BD00000240BE
:1000D000000000180000070000035F00212200005C
:1000E000F4000018222000A00001001008ED00E03C
:1000F00000000000000000000000000074B24E7A12
:1001000000200420F7010010C3010010C5010010F9
:10011000C1010010C1010010C1010010C101001097
:10012000C1010010C1010010C1010010C701001081
:10013000C1010010C1010010C9010010CB01001065
:10014000CD010010CD010010CD010010CD01001037
:10015000CD010010CD010010CD010010CD01001027
:10016000CD010010CD010010CD010010CD01001017
:10017000CD010010CD010010CD010010CD01001007
:10018000CD010010CD010010CD010010CD010010F7
:10019000CD010010CD010010CD010010CD010010E7
:1001A000CD010010CD010010CD010010CD010010D7
:1001B000CD010010CD010010CD010010CD010010C7
:1001C00000BE00BE00BE00BE00BE00BE00F04BF888
:1001D000103800BEF2EB8871FC730210207402101C
:1001E0003402001090A31AE700202149086006C8D5
:1001F00081F3088810471F48006800282FD10DA4FC
:100200000ECC002902D000F012F8F9E71A491B4A77
:10021000002000E001C19142FCD1194988471949E9
:1002200088471949884700BEFDE701C901C29A42C3
:10023000FBD3704720740210C0000020240B002064
:10024000847E02100000042000000420847E02103E
:1002500000100420001004200000000070470B482C
:1002600002F02CFF0047EFF30580C0B2704700009A
:1002700008ED00E0000000D0280B0020680F0020EF
:10028000E51A00105D030010A11A00105756000077
:1002900006005250ABB36053A87E001006005250C7
:1002A000861C0302B87E0010060052505422A29D04
:1002B000C07E001005005250DE65F468847E021096
:1002C000F8B5C0460448054B10B5834203D0044B33
:1002D000002B00D0984710BD240B0020240B0020D9
:1002E0000000000006480749091A8910CB0F591869
:1002F00010B5491003D0044B002B00D0984710BD17
:10030000240B0020240B00200000000010B5074C37
:100310002378002B09D1FFF7D5FF054B002B02D026
:10032000044800E000BF0123237010BD280C00200A
:100330000000000040700010054B10B5002B03D0EA
:100340000449054800E000BFFFF7CCFF10BDC046E0
:10035000000000002C0C00204070001010B504F0CC
:10036000C5FA002010BD000010B58300084A94466D
:1003700063441C6840226240C02414408022520121
:1003800013431C60C000034B9C466044416010BD99
:1003900004C001400040014080000B4B9C4660447B
:1003A00000290DD00823002A0CD004221343026830
:1003B00053400C22134080225201104303607047C7
:1003C0000023F0E70022F1E704C00140002909D032
:1003D0008000094B9C46604480239B0118434023C6
:1003E000036070478000044B9C466044C0239B011F
:1003F000184340230360F4E704C0014010B5012313
:100400008340D0221206936293610521FFF7ACFF6F
:1004100010BD0000EFF3108072B6034B1B68002B79
:10042000FBD0BFF35F8F70472C0100D0BFF35F8F0D
:10043000024B00221A6080F3108870472C0100D014
:1004400070B505000E001400FFF7E4FFF208AA18CB
:1004500015780721314001238B402B4205D1DBB2B7
:100460002B431370FFF7E2FF70BD3100200001F055
:10047000B5FB0000034B1B6802201840431E984147
:10048000C0B2704700C0064000231F2B08D8054AA1
:100490009A189200BFF35F8F002111600133F4E7D7
:1004A0007047C04640000034054A1078431CDBB258
:1004B0001370172B02D9130010221A707047C04610
:1004C000E8010020074B9B68103080001950BFF3F3
:1004D0005F8FBFF35F8F044B0021196082F3108898
:1004E0007047C04600ED00E0240100D010B5091AA5
:1004F0000B1F0A4A94466144094A914208D8DA0718
:1005000006D45B105B055B0D0648184380B210BD36
:10051000054B064A9921064801F0C6FAFC0700007F
:10052000FE0F000000E0FFFF4C7200105C70001036
:100530007C72001010B5091A04394C08090B08D157
:100540004905490D064A11430180064B2343438068
:1005500010BD054B054AA121054801F0A5FAC0468A
:1005600000F0FFFF00F8FFFFC0700010687000107F
:100570007C72001001238340034A10681840431E18
:100580009841C0B27047C04600E100E0002904D0A5
:10059000034B1860034B18607047034B1860FBE770
:1005A00080E200E000E100E080E100E010B501231E
:1005B00083401800FFF7EAFF10BD0000024B9B6864
:1005C00010308000C058704700ED00E070B50400A6
:1005D0000D00EFF3108672B60C4B1B68002BFBD09E
:1005E000BFF35F8F2000FFF7E9FF094B984201D06E
:1005F000A84205D1320029002000FFF763FF70BD3B
:10060000044B054A7C21054801F04EFA240100D034
:10061000CD01001014720010407000107C720010A8
:10062000F0B5C64600B584B001900D00EFF310861A
:1006300072B6554B1B68002BFBD0BFF35F8F534B3B
:100640009A68019C1034A300D758514B9F4207D0A1
:10065000AF4200D196E002974E4BFB1A2F2B08D9E0
:10066000320039000198FFF72DFF04B004BC90461A
:10067000F0BD0198FFF77EFF039000210198FFF77E
:1006800095FFBFF35F8FFFF7EEFD011E01D084429F
:1006900011D10123029C9C430020A368AB4212D0DD
:1006A0000622A256002A0DDB53009B189A00200058
:1006B000384CA418F1E72C21374B384AFF31384821
:1006C00001F0F2F92000AB4255D10623E3569846DB
:1006D000002B36DB5A00424491002E4B5B189A687F
:1006E000A260DA79E2719B795BB2A371002B12DA16
:1006F000BD200002A08043465B0043449A00254B86
:100700009B18284A117899714346137003990198F0
:10071000FFF74CFFA4E7201D1E4A8B181A1D9B886B
:10072000D90A1C2907D15905491502314900511828
:10073000FFF7DCFEDEE71C4B1C4AA721184801F03E
:10074000B3F9002912D100280ED0FF238371184B72
:100750008380144A1378A371164B0E49641A6441BE
:1007600063431B0D1370D1E7094FF2E7201D1249B7
:10077000FFF7E0FECAE76021104B084AFF31084846
:1007800001F092F9024F6BE7240100D000ED00E088
:10079000CD010010EC010020E871001090700010F5
:1007A0007C720010390D00209471001080700010D0
:1007B00000BDFFFFAAAA0000260200200C72001054
:1007C000F8B50400012606432D4BF31A2F2B28D829
:1007D000FFF749FD00282BD0EFF3108772B6294BA5
:1007E0001B68002BFBD0BFF35F8F274D22002449ED
:1007F000521A524155432D0D6DB2244B9B68800017
:100800001B58B3421BD00023032B32D85A00D218F6
:1008100091001B4A5218927952B2AA421FD001335A
:10082000F2E7C2211A4B1B4A49001B4801F03CF970
:1008300088211A4B174AFF31174801F035F9134B3D
:100840009B68174A1A50174B1A78A2711D70BFF394
:100850005F8F0C4B00221A6087F31088F8BD08499F
:100860005A00D618B0000818FF2686710E4B8380F8
:10087000E9E7CC210D4B074A4900074801F014F97C
:10088000EC010020240100D0AAAA000000ED00E045
:10089000AC710010A47000107C720010D4710010B4
:1008A000CD010010390D002000BDFFFFE0710010E8
:1008B0000022044B02E0044902C30132072AFAD99C
:1008C0007047C04600E400E080808080024B9C4678
:1008D0006144890001607047400000340A4B1A6887
:1008E000EFF3108172B61368002BFCD0BFF35F8F5B
:1008F000054B1B68BFF35F8F00221A6081F31088DD
:1009000040BF0020002170471C0D002070B505007D
:100910000C00080000F0F0FC200000F0D3FD0849B6
:10092000200000F013FDFFF7BFFD064B9C4660441E
:10093000800068602C75A400034BE55070BDC04674
:100940002D0C001040000034080D002010B50029C7
:1009500022D003681B7B99421ED8174B9C466144EA
:10096000090183689C4661440C684968002A19D0D3
:1009700003681B7B9A4215D883680F4884466244FB
:1009800012019A1810685368020001208B4201D8A6
:100990000ED00020C0B210BD084B094A3B210948C7
:1009A00001F082F8054B064A3B21064801F07CF82D
:1009B000A242EFD8EDE7C046FFFFFF0F9074001092
:1009C000147300109475001010B500291ED0037B1D
:1009D00099421BD84B005B18033B0468A446634450
:1009E000002919D0002A1DD0914221D0002A25D0FB
:1009F000047BA24222D804685000801803382018D3
:100A00008170197800291FD11A7010BD104B114A3E
:100A10006821114801F048F8104B114A6F310E4817
:100A200001F042F80F4B0E4A70210B4801F03CF8E0
:100A30000D4B0B4A7121084801F036F8044B054A6A
:100A40006821054801F030F841701A70DDE7C046B2
:100A5000E8740010D4720010047500105075001076
:100A6000E07200105C7500106875001070B506002B
:100A70000D001400002914D0002A14D08068736877
:100A80009847002806D0220029003000FFF79CFF7D
:100A9000280007E02A0021003000FFF795FF200022
:100AA00000E0100070BD0800FCE7000070B5CE4605
:100AB00000B583B00500009201930AAB1C780BAB24
:100AC0001B789946002C28D003685A7B944209D1A0
:100AD0000123002B1BD1002C3DD1200003B004BC0E
:100AE000914670BD002C0CD01A7B944209D81A682C
:100AF00063001B19033BD3189B78002BE9D001231B
:100B0000E7E73F4B3F4A68213F4800F0CDFF3F4BAE
:100B10003F4A65213F4800F0C7FF03689C7B002CDB
:100B2000D9D012D01A7B94420FD862001219033A1E
:100B300019688C46624451789973002900D1D973A1
:100B40000023937053701370C5E72D4B2D4A682115
:100B50002D4800F0A9FF002C3BD02B681B7B9C424A
:100B600037D82D4BE3181B01AA68944663440099BB
:100B7000019A19605A60089A9A60099ADA602E6898
:100B8000002C2CD031D0337B9C422ED863001B1913
:100B9000033B32689446634400229A705A701A707C
:100BA000717B22003000FFF761FF7073844200D038
:100BB00093E7287D009A019B00F010FC061E02D0EE
:100BC0004B46002B17D00C9B002B00D185E71E70E5
:100BD00083E7124B124A3B210E4800F065FF114B90
:100BE000114AA521084800F05FFF054B054A68211E
:100BF000054800F059FF2868210000F019FEE2E7DF
:100C0000E8740010D4720010047500108073001096
:100C10004C73001094750010FFFFFF0F90740010CC
:100C20001473001090750010F4720010F0B5DE46D9
:100C300057464E464546E0B58BB0099000230893D1
:100C40008200B24BD7583D0052E0B14BB14A3F2130
:100C5000B14800F029FFB14BB14A3B21B14800F047
:100C600023FF002B01D1002A68D10021604600F04B
:100C7000D5FDA04219D13268736806920793B36814
:100C80009846F3689A464346002B14D0002C18D09F
:100C90002B681B7B9C4214D8631EEA68D35C0893C4
:100CA0001B0218432861002015E09F4B9F4A8C21AE
:100CB0009C4800F0F9FE9E4B9C4A9021994800F018
:100CC000F3FE964B9B4A4021964800F0EDFE002330
:100CD0009A46984600206B68BFF35F8F00221A6027
:100CE00087F310884346002B31D1002800D105E15D
:100CF00000F00EFB0029A8DB0023002406930794D4
:100D00006A68EFF3108772B61368002BFCD0BFF34C
:100D10005F8F2B689C465C7B002CD8D09BD01B7BC4
:100D20009C4298D8844BE6183601AB6898464644F6
:100D300032687368121A8B41002B92DD3268736837
:100D4000099800F04BFB00239A469846C3E7089B9E
:100D50001B022343994651461800C04706000F0066
:100D60006A68EFF3108B72B61368002BFCD0BFF3E8
:100D70005F8F002F26DB002F52DD2B69002B53D015
:100D80004B4574D100F0C4FA02000B1E75DB010064
:100D9000180092197B41984202D804D1914202D99D
:100DA00001225242D317002B6DDB00210491013147
:100DB0000391029451460191414600912800FFF7AA
:100DC00075FE4BE02B69002BD5D04B451CD1069A04
:100DD000079B10001900921BBB41994202D804D115
:100DE000904202D901225242D317002B12DB00217C
:100DF00004910131039102945146019141460091C1
:100E00002800FFF753FE29E04C4B484A9F214548F4
:100E100000F04AFE3E4B3F4A3F213F4800F044FE6F
:100E2000002F01D1002EA8D12A68002C47D0537B77
:100E30009C422ED10123002B41D1D37B002B44D1E6
:100E4000D473002C54D02B681B7B9C4250D8013C9F
:100E5000EB689C46644423780133237000232B61A4
:100E60006A68BFF35F8F13608BF3108840E7334BE2
:100E70002E4AA2212B4800F017FE254B254A3F2180
:100E8000254800F011FE224B224A3F21224800F063
:100E90000BFE002C0DD0137B9C420AD863001B195B
:100EA000033B11688C4663449B78002BC3D001231D
:100EB000C1E7234B234A6821234800F0F5FD234B6B
:100EC000234AF621204800F0EFFD002B0AD0117BC9
:100ED0008B4207D85900CB18033B11688C466344FA
:100EE0005C70ADE7164B174A6821174800F0DCFD2F
:100EF0000A4B104A40210B4800F0D6FD0BB03CBC19
:100F000090469946A246AB46F0BDC046080D00206B
:100F1000A8730010BC720010C4730010907400100D
:100F200014730010947500100C740010647300109A
:100F30002474001020730010FFFFFF0F30740010A6
:100F4000E8740010D4720010047500106C74001066
:100F50000473001010B50A4B5B68002B04D00A2103
:100F60000848FFF7B3FC10BD054C2300064A1021CA
:100F7000206800F071FB03212000FFF7C7FCEEE7BB
:100F8000340200201C0D00204D09001010B5064B46
:100F90005B68002B01D0044810BD044B044A5C215F
:100FA000044800F081FDC04634020020C4740010E3
:100FB0003473001094750010F0B5D6464F4646467F
:100FC000C0B588B0804616001F00109B994612AB32
:100FD0001B789A461F236B4400221A7032E00028C7
:100FE00009D042461268127B904204D8421E414604
:100FF000C9688A5C42E03F4B3F4A40213F4800F0CD
:1010000053FD0020002B6DD05346002B6AD0119960
:10101000C84704000D0003000B4369D000293FDBE3
:1010200000F076F900294FDB24184D41A94202D87F
:1010300004D1A04202D901246442E517002D49DB06
:1010400026002F0043465A68EFF3108472B61368E7
:10105000002BFCD0BFF35F8F1F236B44049300234E
:1010600003930293119B01934B46009332003B0084
:101070004046FFF71BFD031EB1D1020041464968FF
:10108000BFF35F8F00250D6084F31088002B27D0FD
:101090001F236B441B78002BB3D112021043B1E71E
:1010A00032003B00361BAF41BB4202D804D1B242F2
:1010B00002D901267642F717002FC3DA104B114AE6
:1010C0003F21114800F0F0FC0D4B0E4A3F210E4825
:1010D00000F0EAFC0A4B0B4A3F210B4800F0E4FC0D
:1010E0000120404208B01CBC90469946A246F0BD83
:1010F0000020F7E790740010207300109475001022
:10110000A8730010BC720010C4730010F0B587B053
:1011100006000F00FFF7A7F800281ED1062464423E
:10112000E517A4197D41BD4202D803D1B44201D9CB
:1011300000240025002D13DB0494059500F0E8F849
:10114000002913DB241A8D41002D17DC14D0300048
:10115000390000F0E9F807B0F0BD234800F03EFD8B
:10116000224B234A3F21234800F09EFC1F4B204A7C
:101170003F21204800F098FC002CE8D0FFF706FF44
:101180000023029301931C4B0093049A059BFFF7E5
:1011900013FF002818DADAE7002300E00023002B11
:1011A000D5D1164B1A68EFF3108172B61368002B75
:1011B000FCD0BFF35F8F114B1B68BFF35F8F002222
:1011C0001A6081F3108820BF0499059A0C4B5B6A62
:1011D0009A42E3D80A48806A884203D29A42DBD016
:1011E0000123DCE70123DAE7CC750010A8730010B7
:1011F000BC720010C4730010DD0800101C0D00202C
:101200000040054070B504000D0000F081F8002991
:1012100010DB02000B00001969418B4202D804D197
:10122000824202D901204042C117002908DBFFF7A2
:101230006DFF70BD054B064A3F21064800F034FCA7
:10124000024B034A3F21034800F02EFCA873001014
:10125000BC720010C473001010B5FA229200002373
:10126000002102F0C3FDFFF7CDFF10BD70B5EFF315
:1012700005833F2018401038EFF3108472B6194BE5
:101280001B68002BFBD0BFF35F8F01231900814047
:10129000154A5163154A12781500C5402B4214D0E7
:1012A000114B5D6A8300124E9B599D4206D3830009
:1012B000104D5B598A430D490A7007E00A4A031D25
:1012C0009B0099589950002300E00023BFF35F8FE3
:1012D000044A0021116084F31088002B00D0984745
:1012E00070BDC046280100D0004005403A0D0020E6
:1012F000200D0020800C002010B50100024A034898
:10130000FFF79EF810BDC04638760010380D00205B
:10131000044B596A00E01900024B986A5B6A9942D3
:10132000F9D1704700400540074B5B6A8B4204D2FD
:10133000054B5B6AFAE7044B5B6A8B4203D1024BB5
:101340009B6A8342F7D370470040054070B50400A4
:101350000D00EFF3108672B61B4B1B68002BFBD001
:10136000BFF35F8F002D1CD02000FFF727F9174B2C
:1013700098420BD019002000FFF728F90121200026
:10138000FFF714F90123A340114A1360A400114B85
:10139000E550BFF35F8F0C4B00221A6086F3108874
:1013A00070BDA2000B4B0021D1500122A2400A497E
:1013B0000B7893430B7005492000FFF731F90021AA
:1013C0002000FFF7F3F8E4E7280100D06D120010C9
:1013D00038600540800C00203A0D0020F0B5DE4654
:1013E00000B584B00500140001921E000293FFF7BF
:1013F0008FFF03948E4202D84ED184424CD9EFF332
:10140000108B72B6274B1B68002BFBD0BFF35F8F8E
:10141000254A17780124AC40E3B23B431370234BB9
:101420005C632A1D92000199D150AA0020490298BC
:1014300050501B6A234212D11C4B1B6C234208D014
:101440000020BFF35F8F174B00221A608BF31088C8
:1014500023E0184B184AC121184800F025FBFFF77C
:1014600057FF8E4214D802D1039B834210D80E4BF3
:101470001B78BB420ED00D4B1C625C631F222A40BE
:10148000012393400E4A1360074B1F700120D8E7D9
:101490000020D6E70120D4E7012004B004BC934625
:1014A000F0BDC046280100D03A0D002000400540A4
:1014B000200D00205C7600101C7600108076001055
:1014C00080E200E010B5EFF3108472B60A4B1B689F
:1014D000002BFBD0BFF35F8F01238340074A1362C9
:1014E00007490A789A430A70BFF35F8F024B0022C4
:1014F0001A6084F3108810BD280100D00040054018
:101500003A0D002010B500291ED0037B99421BD84C
:101510004B005B18033B0468A4466344002919D0C0
:10152000002A1DD0914221D0002A25D0047BA2425E
:1015300022D8046850008018033820188170197868
:1015400000291FD11A7010BD104B114A6821114893
:1015500000F0AAFA104B114A6F310E4800F0A4FABD
:101560000F4B0E4A70210B4800F09EFA0D4B0B4AB0
:101570007121084800F098FA044B054A6821054893
:1015800000F092FA41701A70DDE7C046E87400106E
:10159000C47600100475001050750010D07600104D
:1015A0005C7500106875001070B506000D00140021
:1015B000002914D0002A14D0806873689847002846
:1015C00006D0220029003000FFF79CFF280007E02A
:1015D0002A0021003000FFF795FF200000E01000F6
:1015E00070BD0800FCE7000010B500234373013311
:1015F0008373037BC3730123027B9A4214D9002BAC
:101600000CD0027B934209D85A00D218033A0168E1
:101610008C4662440133DBB25370EDE70B4B0C4A4E
:1016200068210C4800F040FA002A09D0924207D8FD
:10163000016853009A18033A8A180023537010BDAA
:10164000024B034A6821034800F02EFAE8740010A8
:10165000C47600100475001010B5017342608360F9
:10166000FFF7C2FF10BD000070B50400002901D1D2
:10167000080070BD002934D0037B994231D84B005B
:101680005B18033B0268944663445A78002AEFD003
:101690002DD0037B9A422AD853009B18033B006845
:1016A000844663445D7800205870002925D0237B50
:1016B000994222D84B005B18033B20688446634460
:1016C000002058702000FFF76FFF0600290020005F
:1016D000FFF7CAFF020031002000FFF765FF01009D
:1016E000C6E7094B094A6821094800F0DDF9064BB5
:1016F000064A6821064800F0D7F9034B034A6821DF
:10170000034800F0D1F9C046E8740010C476001018
:101710000475001070B505000C001600002928D0D3
:101720002DD0037B99422AD84B005B18033B0268FB
:10173000944663445A78002A27D19A78002A2AD1FD
:101740001978FFF791FF0300002E03D0EA7B002AEF
:1017500027D1EC73002B37D1002C49D02B7B9C4236
:1017600046D82A6863001C19033C141900236370CF
:1017700070BD224B224A3821224800F095F9224BB5
:10178000224A6821224800F08FF9224B1C4A3A2154
:101790001C4800F089F9204B194A3B21194800F0F8
:1017A00083F9002A0AD0297B8A4207D851008A1877
:1017B000033A29688C4662445470CAE7124B134AB4
:1017C0006821134800F070F9002B0BD02A7B93425C
:1017D00008D843001B18033B2A6894466344002240
:1017E0009A70B9E7084B094A6821094800F05CF98A
:1017F000054B064A6821064800F056F9307700107C
:10180000E476001038770010E8740010C4760010F9
:1018100004750010707700109877001070B5040000
:101820000A00457B2900FFF775FF6073280070BD33
:1018300010B50400002966D0437B8B420ED00029EE
:1018400011D0037B99420ED84B005B18033B026812
:10185000D0188378002B0CD1002055E00121FFF730
:10186000DDFF012050E0294B294A6821294800F07A
:101870001BF9002B1FD0227B93421CD85A00D3188F
:10188000033B2268D21813788B421AD0002B1BD04E
:10189000227B934218D85A00D318033B2268D218EF
:1018A00053788B4216D0002BF0D11B4B1B4A67217B
:1018B0001B4800F0F9F8154B154A6821154800F04F
:1018C000F3F84378137007E0104B114A6821114870
:1018D00000F0EAF8437853700023837043700122CC
:1018E0002000FFF717FF0200617B814205D0200036
:1018F000FFF75AFE6073012006E00A4B074A6D218C
:10190000074800F0D1F8002010BDC046E874001070
:10191000C476001004750010E0710010F876001015
:10192000387700101077001010B50400FEF7BCFDEA
:1019300001002000FEF7CAFFFF232371BFF35F8F72
:1019400010BD10B50400FEF7AFFD01002000FEF74A
:10195000BDFFFF23237100236371BFF35F8F10BDB1
:1019600070B505000C00062000F04EFAC000210002
:1019700001F0F8FBC60908D00E4B9E4217D87F2312
:10198000184001303400460800E001246C62AE6269
:101990002C3580239B011D4300232B60062000F083
:1019A00033FA8000A101891901F0DCFB70BD00262B
:1019B000014CEBE7FEFF0000FFFF0000002909D00B
:1019C0000A22064B9C466044434258414000044B67
:1019D000C252704780225200F3E7C0460080FCBF2D
:1019E0003C0D002070B505000C00062000F00CFA3C
:1019F000002829D0164B9D4227D08022D203154BB8
:101A00001A60154B1A60154B9B6811009943FAD167
:101A100000212800FFF7D2FF21002800FFF7A0FFD8
:101A20002C002C34E96A60224A406E211140802249
:101A30005201224311600A4B2B6380239B012343F5
:101A400010221A600323AB6470BD80221204D6E713
:101A50000080034000E0004000F0004000C0004073
:101A60000103000000BEFDE703000A4A1268002AD5
:101A700008D0084A1068C318074A9A4206D3054A94
:101A800013607047034A05491160F2E701204042A4
:101A9000F7E7C046000D002000000420680F00207A
:101AA00010B5FFF7DFFF000010B582B00C00190081
:101AB000002A0CD0084B002A0BD00192009323007F
:101AC0000200064802F01AFC0120FFF7CBFF044B8E
:101AD000F1E7034AF1E7C04654780010647800103B
:101AE000C080001070B52B4B2B4A1A602B4B2C4A30
:101AF0001A602C4B9A682A4B9343FAD12A4C01E086
:101B000008CC9847294B9C42FAD300F0FDF8234BB0
:101B1000274A1A60234B9B68DB43DB01FAD1254B34
:101B200040229A675A671A67DA66234C09E0234B0A
:101B3000234A83212348FFF7B7FF2000FFF7F4FE75
:101B40000834214B9C4209D22368002BF5D0012B8D
:101B5000EDD12000FFF7F5FE0834F2E71B4CA16839
:101B60001B4DC022280002F087FAA560FEF77BFB20
:101B7000002800D000BEFEF787FCFEF799FEFFF7B5
:101B8000E9F9144C01E008CC9847134B9C42FAD376
:101B900070BDC04600E00040BFCDFBFE00F000403D
:101BA000FE7F3C0000C00040100B0020200B0020F6
:101BB000FFFFFF0100F00140080B0020B478001087
:101BC00094780010D4780010100B002000ED00E095
:101BD00000000020200B0020240B00200FB400B5D3
:101BE00083B0084802F058FB049B002B07D005A9DE
:101BF0000191180002F060FB034802F04DFB012048
:101C0000FFF730FFA478001070800010F0B5DE46BA
:101C1000574680B583B007000E0092460A9A934259
:101C20004CD3190E01911B02180000930A9A00234D
:101C300001F0DAFA05007B00DB199C002D4B9C4675
:101C400064446368834200D260603B1FDBB29B4602
:101C5000012B39D9C0239B012343802212011A6032
:101C6000BB00254A9958002905D0506901F07AFA3D
:101C700001300138FDD153465B0122685340E02218
:101C8000134080225201224313605B46012B26D968
:101C900080239B012343802212011A6065602A0081
:101CA00000230098019901F09FFABF00124BF850F1
:101CB000012003B00CBC92469B46F0BD0F4B104A6E
:101CC0002D211048FFF7F0FE012EC3D1C0239B0148
:101CD000234303221A60A368DB07FCD5CBE7216806
:101CE000714003230B401360A3680122B2401A42E3
:101CF000FAD0CDE700800040900C00202879001039
:101D0000187900103C79001030B583B00C2000F039
:101D100021F9FEF7AFFB00280DD00023092B05D8D1
:101D200099002D4A2D4888500133F7E72A4B2C4A59
:101D30005A6203B030BD2B4B00229A6700F012F9B3
:101D4000294B01221A60274B5B6C012BFBD1274BDF
:101D500003221A60234B9B6B012BFBD101330093B1
:101D60000433234A0121234800F054F8052300934B
:101D7000214A0121214800F04DF8214B0093002217
:101D800002210420FFF742FF1E4D00952B00002288
:101D900001210520FFF73AFF104C00942300002298
:101DA00000210720FFF732FF0094230000220021CA
:101DB0000820FFF72BFF0A4B00932300002200218D
:101DC0000920FFF723FF00952B00002200210620A9
:101DD000FFF71CFFADE7C046900C0020006CDC0252
:101DE0001BB70000008000403CB0004030B0004015
:101DF000002F685900800240008C864700C00240D6
:101E0000001BB700405973078000014BC058704752
:101E1000900C0020F0B583B00500019114001F0064
:101E20000C2001F09FF906003D4BE2183D4B9A4211
:101E300042D84201121A93019B1ADB001B18990128
:101E4000200001F08FF90200103A98235B009A42BB
:101E500038D87B1E062B3BD8089B013B062B37D876
:101E6000089B9F423AD32309B3423DD33F04089BCA
:101E70001E033E432B68002B3CDB2B4B9D424BD07B
:101E800080214901294B1960294B1960294A926820
:101E90000B009343FAD1019B2B60A8602A1DC0233D
:101EA0009B01134321221A602A68002AFCDAEE60A3
:101EB00008221A6003B0F0BD1F4B204A11212048B0
:101EC000FFF7F2FD1F4B1D4A19211D48FFF7ECFDDE
:101ED0001D4B1A4A1C211A48FFF7E6FD1B4B174AF7
:101EE00022211748FFF7E0FD194B144A2521144819
:101EF000FFF7DAFD2A683F231340019A9342BCD1D1
:101F0000AB681B051B0D8342B7D1EB68EE22D202F2
:101F10001340B342B1D1CDE780218901B2E7C04679
:101F200080E84BD380F8A93200C0024000E00040B6
:101F300000F0004000C000408C7900108079001053
:101F4000EC7900102C7A0010487A0010947A001076
:101F5000AC7A001080239B000343014AD362704790
:101F600000800540064BAA2212011A602F22DA6077
:101F7000044B054A1A60024B5B68002BFBDA704782
:101F8000004002400060024000B0FA009A4200D2D5
:101F900088547047704710B5002802D00B68496814
:101FA000984710BD10B50400002321680A78303A24
:101FB000D2B2092A08D89800C31858004B1C2360D5
:101FC0000B781B18303BF0E7180010BDF0B5D64673
:101FD0004F464646C0B582B0050000919046019339
:101FE0000A9B99460B9C0C9E0D9B9B070CD04E4662
:101FF0000C9B9946002C19D0013C571C305D019B6D
:102000000099A8473A00F5E72700A246B74207D251
:10201000541C019B00992020A84701372200F5E7B6
:1020200054460C964E460C9B9946E3E74E460D9B54
:102030009B0706D4100002B01CBC90469946A246ED
:10204000F0BD4746D31BB342F4D2541C019B009908
:102050002020A8472200F5E7F0B5CE4600B586B0AF
:10206000049205930C9D0D9C0EAE33789946109FFB
:10207000119B129EB2071BD4002B08D0F20706D585
:102080004A46002A02D10C32324200D0013BBC4207
:1020900008D21F2C06D830222A550134F7E7302207
:1020A0002A550134F20703D59C4201D21F2CF6D9E0
:1020B000F20615D5720505D4002C03D0BC4223D0FE
:1020C0009C4221D00F9A102A2AD00F9A102A2FD082
:1020D0000F9A022A34D01F2C02D830272F550134F2
:1020E0001F2C05D84A46002A30D02D272F55013401
:1020F0000396029301940095059B049AFFF766FFEF
:1021000006B004BC9146F0BD671E002F06D00F9AA2
:10211000102A01D03C00D5E7023CD3E73C00D1E7D0
:10212000B206D2D41F2CD0D878272F550134D2E74D
:10213000B206CDD51F2CCBD858272F550134CAE76E
:102140001F2CC8D862272F550134C4E7720703D566
:102150002B272F550134CBE73207C9D520272F5520
:102160000134C5E7F0B5CE46474680B595B0089036
:1021700009910A920B931CAB10CB1B7898461E9DBD
:10218000219B9946002C03D110234A469A4391463D
:102190008027FF004B461F4018D0002C22D000277C
:1021A00014E04A4692061BD54121C918C9B20A3922
:1021B000C9B27E1C0CABD9552900200000F0D2FF1B
:1021C000AC4210D31F2E0ED8370004002900200087
:1021D00000F0C8FFCBB2092BE3D83033D9B2E8E71F
:1021E0006121E2E726004B460693209B05931F9B47
:1021F000049303954346029301960CAB00930B9B0B
:102200000A9A09990898FFF727FF15B00CBC904669
:102210009946F0BDF0B5DE46574680B597B00A90B6
:102220000B910C920D931E9A08921F9C20AB1B7869
:102230009B46229B0993239D269B9A462243131E6D
:1022400003D1103352469A4392468026F6005346F5
:102250001E4006D0089A1300234333D000263700CF
:102260001AE0370018E05246920621D54122D218D2
:10227000D2B20A3AD2B27E1C0EABDA55099A2B00C2
:102280000898210000F0B0FFA5421DD812D01F2EE3
:1022900016D8370008900C00099A2B0008982100E6
:1022A00000F0A2FFD3B2092BDDD83033DAB2E2E777
:1022B0006122DCE7099B089A9342E8D9370004E0E1
:1022C000370002E0002700E0370053460693259BC5
:1022D0000593249B0493099B03935B460293019708
:1022E0000EAB00930D9B0C9A0B990A98FFF7B4FE66
:1022F00017B00CBC92469B46F0BD0000F0B5D64628
:102300004F464646C0B594B00A9006910B9207938B
:102310001C9C08941D9D099522002B00200029007B
:1023200001F0F1F9002800D0E8E001225242D64B3A
:102330002000290001F0E2F9002800D0DEE00122AF
:102340005242D24B2000290001F0C2F9002800D0EF
:10235000D4E000220023089D2800099C210001F000
:10236000B7F9002800D0DFE0089E099F8023DB003A
:10237000209A1A409046131E01D106331E930C96E4
:102380000D973A00324300D1D5E0380D4005400D9D
:10239000BF4A944660443A03120BBE4B13431D00E0
:1023A00001F0C4F9BC4ABD4B01F04FF9BC4ABD4B2A
:1023B00001F024F90C900D910022BB4B3000290054
:1023C00001F013F9B94ABA4B01F03FF902000B00D2
:1023D0000C980D9901F012F901F0C0F9824601F054
:1023E000A5F9B44AB44B0C900D9101F02EF90022DE
:1023F000B24B01F003F901F0B1F90500B04AB14B5D
:102400000C980D9901F021F90C900D91280001F024
:102410008DF9AD4AAD4B01F018F902000B000C9894
:102420000D9901F0E2F802000B000E900F9101F0FF
:102430000CF910901191A64B9C4665442B050D9309
:1024400000230C930E9C0F9D22002B0020002900DE
:1024500001F0D4F80E900F9122002B000020802173
:10246000C90501F0C2F8129013910022994B109CFB
:10247000119D2000290001F0CAF80022964B01F0BE
:10248000BDF802000B002000290001F0C0F8002276
:10249000924B01F0B3F802000B002000290001F07C
:1024A000B6F802000B001298139901F0A7F8020089
:1024B0000B000E980F9901F0AAF80022754B01F05D
:1024C0009DF80C9A0D9B01F0C0F802000B000C92D5
:1024D0000D9332003B0004000D0001F00FF90028BD
:1024E0002BD001235B429C46E24400227A4B200021
:1024F000290001F08CF80C900D911EE0209B0493B4
:102500001F9B03931E9B0293089A099B00920193C1
:10251000079B0B9A06990A9800F0F4F814B01CBCBB
:1025200090469946A246F0BD2E0080231B069C468D
:10253000644427001AE700239A4653466333C62BA8
:1025400021D80425209B1B0529D50C9A0D9B190029
:10255000114310D0624A634B3000390001F0C6F8D5
:10256000002800D182E000225F4B3000390001F0EA
:10257000AFF800287AD01E9B534506DD52469C1AC0
:10258000631E1E9303E00525DCE700231E938023D2
:10259000DB00209A1A432092002500239A461F9BB5
:1025A0009D426DD25B1B99460223209A1A409046A9
:1025B00003D0002D01D0002399465346002B07D0AD
:1025C0000C9A0D9B3000390001F021F806000F0035
:1025D000002200230898099901F07AF8002800D019
:1025E00086E0424B209A134004934B4603931E9B74
:1025F000029300960197079B0B9A06990A9800F0A0
:1026000081F8002D00D189E7209B9B0675D54526D2
:10261000471C079B0200069930000A9EB0475046AF
:10262000C2178318534005220592013D04950022EC
:1026300003920A320292C40F01940093079B3A005E
:1026400006993000FFF78EFD4346002B00D165E769
:1026500002000A9E0B9C1F9D131BAB424FD2571CBE
:10266000079B06992020B0473A00F5E71E9B002BF8
:1026700095D04346002B92D01E9B013B1E938EE7C4
:102680000023994690E7C046FFFFEF7FFFFFEFFF73
:1026900001FCFFFF0000F03FFB799F501344D33F44
:1026A000B3C8608B288AC63F0000F83F61436F6360
:1026B000A787D23F71A379094F930A400000E03FFA
:1026C0001655B5BBB16B0240EF39FAFE422EE63F1C
:1026D000FF03000000002C400000244000001840D0
:1026E0002D431CEBE2361A3F80842E41FFF7FFFF9B
:1026F000802109067B181F0073E7652688E7100014
:102700000CE7C046F0B5D646474680B597B0069070
:10271000079108920993209F1E9A1F9B1000190091
:1027200000F0F1FF002839D101225242BC4B1E9823
:102730001F9900F0CDFF00283FD101225242B94B32
:102740001E981F9900F0DAFF002845D10022B64BF1
:102750001E981F9900F0D2FF002856D10022B34BDB
:102760001E981F9900F0B4FF00284ED100220023CC
:102770001E981F9900F0ACFF002856D100239A46FE
:10278000229B5B055CD500261F2E5BD8092F59D9EB
:102790000EAB30229A55013F0136F5E7229B039399
:1027A000219B029303230193A14B0093099B089A59
:1027B00007990698FFF70AFC03E1229B0393219BEC
:1027C0000293042301939B4B0093099B089A07995A
:1027D0000698FFF7FBFBF4E00423229A134010D085
:1027E000954A002B0FD0042322990391219902913D
:1027F00001930092099B089A07990698FFF7E6FB58
:10280000DFE08E4AEDE70323EEE7229B0493219B52
:10281000039302971E9B1F9C00930194099B089AA7
:1028200007990698FFF76AFDCBE01E9A1F9B0020D0
:10283000002100F0DAFE1E901F9101239A469FE7C7
:102840000627A0E71E981F9900F088FF040000F0FB
:102850006DFF02000B001E981F9900F0C6FEFA00E3
:10286000774B9B181A685B680C920D9300F0EDFE95
:102870000A900B9100F096FF050000F053FF020054
:102880000B000A980B9900F0B0FE0A900B91002201
:102890006C4B00F033FF00282CD00135280000F0ED
:1028A00041FF02000B000C980D9900F017FF002863
:1028B00001D001340025002F2AD1200000F036FF7E
:1028C00002000B001E981F9900F08FFE00225D4B46
:1028D0000A900B9100F0FCFE002844D10022594BD5
:1028E0000A980B9900F00AFF00283CD1E3073AD57B
:1028F000013438E00022534B0A980B9900F0E8FEAF
:102900000028D8D1002D01D0EB07D4D50135D2E76E
:102910000A941F2E11D8013F0A21280000F022FC42
:10292000741C30310EAB99550A21280000F01AFCB6
:10293000092D0ED905002600EBE70A9C1F2E0CD8A6
:102940007B1E002F09D00EAA302191551F000136A1
:10295000F4E7A0460A9C4646F0E71F2E03D80EABCC
:102960002E229A5501361F2E10D80A21200000F081
:10297000D1FB751C30310EAB99550A21200000F0B7
:10298000C9FB041E01D02E00EDE72E000323229A7E
:102990001340012B1AD01F2E06D85346002B2FD0E0
:1029A0000EAB2D229A550136229B0393219B029355
:1029B00001960EAB0093099B089A07990698FFF7BA
:1029C00005FB17B00CBC90469A46F0BD219B002B2E
:1029D0000AD05346002B02D10C3313420ED0219B58
:1029E000013B2193190000E021998E42D3D21F2E82
:1029F000D1D80EAB30229A550136F6E72199F4E78B
:102A0000229B5B0704D50EAB2B229A550136CBE7F0
:102A1000229B1B07C8D50EAB20229A550136C3E76F
:102A2000FFFFEFFFFFFFEF7F65CDCD4165CDCDC14E
:102A3000B47C0010B87C0010AC7C0010A87C0010A6
:102A4000C07C00100000E03FF0B5DE4657464E4621
:102A50004546E0B593B083460B910A921193002945
:102A600000D1E6E200275C46119B1878002800D1CF
:102A7000E2E2252809D07D1C0A9B3A000B99A04769
:102A8000119B013311932F00EEE7013311930026C0
:102A90001DE00B00303BDBB2092B37D92A293AD095
:102AA00000239B46119B1A782E2A44D00023984677
:102AB000119A1378683BD9B2122900D980E08B00B3
:102AC000CB49CB589F4601231E4301321192119AE4
:102AD00011780B00203BD8B21028DAD88300C54803
:102AE000C3589F4602231E4301321192EFE704238D
:102AF0001E4301321192EAE708231E43013211926C
:102B0000E5E710231E4301321192E0E711A8FFF719
:102B100049FA8346C6E71C9B1A1D1C921B68002BB2
:102B200004DB9B46119B01331193BBE70222164342
:102B30005B429B46F6E78022D20016435A1C119254
:102B40005A781300303BDBB2092B04D92A2A07D06C
:102B500000239846ACE711A8FFF724FA8046A7E7C0
:102B60001C9B1A1D1C921B68002B04DB9846119BB2
:102B7000013311939CE70023F8E780235B00334384
:102B8000511C119152786C2A01D01E0018E0C0230C
:102B90009B001E430131119112E080233343511CED
:102BA00011915278682A01D01E0009E0C0231E430B
:102BB0000131119104E080235B001E430132119228
:102BC000119B18780300253BDAB2532A00D926E27C
:102BD0009300894AD3589F4680239B001E430132AD
:102BE0001192EDE780235B001E4301321192E7E76B
:102BF000782809D0582838D06F2838D0622838D0A3
:102C000010239E430A2500E01025582833D0692858
:102C100003D0642801D00C229643730501D501220C
:102C2000964369282AD0642828D0B30500D59FE0B0
:102C3000F30500D5B8E0730600D4CAE01C9A111D54
:102C40001C911168FF220A4005965B460493434697
:102C5000039302950023019300920A9B3A000B997B
:102C60002000FFF77FFA070027E01025CDE70825B1
:102C7000CBE70225C9E720221643C8E7B30520D4D5
:102C8000F30550D4730666D51C9A111D1C9111686A
:102C9000FF220A40D317D118594005965B4604938A
:102CA000434603930295D20F019200910A9B3A008A
:102CB0000B992000FFF756FA0700119B013311937F
:102CC000D2E61C9BDA1D07218A43110008311C91B2
:102CD000116853689C46DB170C930D930C9A0D9B5F
:102CE000100048400E90624653400F930E980F9983
:102CF0000C9A0D9B801A99410E900F9108965B4695
:102D00000793434606930495002305936346DA0F21
:102D10000292009001910A9B3A000B992000FFF764
:102D200079FA0700C9E71C9A111D1C911268D31784
:102D3000D118594005965B46049343460393029588
:102D4000D20F019200910A9B3A000B992000FFF7E5
:102D500009FA0700B1E7330605D51C9A111D1C912D
:102D60000023D25E96E71C9A111D1C91126891E710
:102D70001C9BDA1D07218A43110008311C9108961B
:102D80005B460793434606930495002305930293FD
:102D900053681268009201930A9B3A000B99200035
:102DA000FFF738FA070088E71C9A111D1C91059659
:102DB0005B460493434603930295002301931368F3
:102DC00000930A9B3A000B992000FFF7CBF907000C
:102DD00073E7330606D51C9A111D1C911268120464
:102DE000120C31E71C9A111D1C9112682CE7C04689
:102DF000C87A0010147B0010587B001046281AD0A7
:102E00001C9B0733072293431A0008321C92049636
:102E10005A460392424602921A685B6800920193F6
:102E20000A9B3A000B992000FFF76CFC0700119BEE
:102E30000133119318E620231E43E1E7672801D0F0
:102E4000472802D180231B011E43452801D0472873
:102E500001D120231E431C9B0733072293431A00F2
:102E600008321C9204965A460392424602921A680D
:102E70005B68009201930A9B3A000B992000FFF7D0
:102E80003DFA0700119B01331193EDE50223334016
:102E90009A461ED001261C9B1A1D1C927D1C187878
:102EA0000A9B3A000B99A0475346002B15D1119B62
:102EB000013311932F00D7E5551C0A9B0B99202055
:102EC000A04733002A005E1C9F42F5D8BB4617007E
:102ED000E1E701233A005F46F5E72A00A0465C4699
:102EE00006E0571C0A9B0B992020C0472E003A0091
:102EF000751CB442F5D815004446D8E71C9B1A1D32
:102F00001C921B689A464346002B00D1013B554654
:102F10002A78002A05D05A1E002B02D00135130052
:102F2000F6E75346ED1A8023DB003340994602D082
:102F3000454500D9454602233340109308D03A0056
:102F4000564629004D4623004446984689461FE0D0
:102F50003A0023005C469B4606E0571C0A9B0B99EF
:102F60002020D84735003A006E1CAC42F5D8350019
:102F70005B46A346564629004D4644469846894638
:102F800006E01C000136571C0A9B0B99C0473A000B
:102F90003078002804D0002DF4D0631E002CF0D12E
:102FA00017004D464446109B002B03D1119B013363
:102FB000119359E55C4606E0571C0A9B0B992020AB
:102FC000C04735003A006E1CAC42F5D817004446A5
:102FD000ECE7212333431C9A111D1C9112680092C7
:102FE000059308230493434603931023029300237D
:102FF00001930A9B3A000B992000FFF7B3F80700F2
:10300000119B013311932FE57D1C0A9B3A000B990C
:103010002520A047119B013311932F0024E57D1C2F
:103020000A9B3A000B99A047119B013311932F0083
:103030001AE50B4B9B4615E5A3460A9B9F420CD312
:103040005A1E0A9B0B990020D847380013B03CBC8D
:1030500090469946A246AB46F0BD3A00F1E7C0461D
:10306000951F00100EB410B585B0010007AC08CC58
:1030700003940122009452420348FFF7E5FC05B097
:1030800010BC08BC03B018478D1F001000B585B0F8
:10309000029003910121009313004A4202A90248C1
:1030A000FFF7D2FC05B000BD971F001001480421B6
:1030B000014B184760020020DD30001010B5010000
:1030C00018231B8814221088984710BD10B50100E2
:1030D00018231B8816221088984710BDF0B5C646E5
:1030E00000B507000E0000250123984600E00135D9
:1030F000B5420AD2AC003C192068FFF7DFFF206020
:103100000028F4D100239846F1E7404604BC9046DD
:10311000F0BD0000124A936F9B0815D29066D166ED
:10312000002905D0FFE7FFE7FFE7516F106F7047F9
:1031300004B580210906C2175140002800D0C843B9
:1031400003F05EFF002104BDF0B5146E556E576F9D
:10315000166FFFF7E3FF1466556657671667F0BDF5
:10316000000000D0114A936F9B0813D2106651667D
:10317000002905D0FFE7FFE7FFE7516F106F7047A9
:1031800004B5002801D00020C04303F039FF00211E
:1031900004BDC046F0B5146E556E576F166FFFF73D
:1031A000E5FF1466556657671667F0BD000000D04E
:1031B00094464E4A926F9208624601D230E0C04671
:1031C000F0B54A4EB56F6D08FCD3346E756E776FEF
:1031D000366F00F025F89446444A146655665767E2
:1031E00016676246F0BDC0469446404A926F920808
:1031F000624601D258E0C046F0B53C4EB56F6D084E
:10320000FCD3346E756E776F366F00F04DF89446D0
:10321000364A14665566576716676246F0BDC04663
:10322000002B24DB11D000293EDA00B5C94340420F
:1032300000D1013100F038F8C943404200D10131DA
:10324000DB43524200D1013300BD002AEBD10028FC
:1032500001D1002905D00020C90FC90701D1C04301
:10326000410800B503F0C4FE0022002300BD00B5F4
:1032700000290ADBDB43524200D1013300F014F88D
:10328000C943404200D1013100BDC943404200D191
:103290000131DB43524200D1013300F005F8DB433A
:1032A000524200D1013300BD002923D1002B18D197
:1032B000002A0CD0BC460D4F38667A6600210023E8
:1032C000FFE7FFE7FFE77A6F386F67467047002830
:1032D00001D00748010000B503F08AFE0022002358
:1032E00000BD02000B00002000217047000000D04C
:1032F000FFFFFFFF002B00D0BFE0130C28D1002AF6
:10330000E7D080B4114F39667A66FFE7FFE730B443
:10331000040C7B6F396F1B0423433B667A66FFE71F
:10332000FFE7FFE7C04684B27B6F3D6F1B0423437A
:103330003B667A66FFE7FFE7C04600232C042D0CAE
:103340007A6F386F00196941B0BC7047000000D037
:10335000F0B594460025140E01D112020835140F61
:1033600001D112010435940F01D192000235D40F1E
:1033700001D152000135D40B0134254F7C66254C18
:103380003C660E0C93B2FFE7FFE7FFE73C6F664336
:10339000360C7703BE467343DF0B5B04C01AB9419A
:1033A000130C7343DB18C91ACE086643360CB644B7
:1033B00093B273431F0F1B01C01AB941130C73431F
:1033C0001F0B1B05C01AB941860D8F023E43664391
:1033D000360C092D24DB520A7243801A7703460A01
:1033E0006643360C16235B1BDE40DF40BF19644684
:1033F0006643821B7046043506330100D940A8405D
:10340000C01900D30131A24206D20023F0BD000052
:10341000000000D0FFFFFFFF121B0130F3D3F1E7E4
:1034200009277F1BFE406446A2B27243801A00D275
:103430000139220C7243130C1204821A99410B00B9
:103440007046043513370100F940A840801900D3B5
:103450000131002B02D1A2420AD2F0BD013000D3CB
:103460000131121BFAD2013BF8D1A24200D2F0BDC9
:10347000013000D30131121BF7E7F0B51C0C00D06E
:1034800080E00CB400251C0A04D11B02160E334345
:10349000120208351C0B04D11B01160F3343120115
:1034A00004359C0B04D19B00960F334392000235E8
:1034B000DC0B02D192185B4101351C009718644166
:1034C0000134464F7C66464C3C660E0CFFE7FFE736
:1034D000FFE7C0463C6F6643360C7703BE4697B2A3
:1034E0007743C01B00D20139C01B00D201399FB203
:1034F0007743C91BC91B170C77437E04FF0B801B46
:10350000B941CE086643360C0C2D33DBB644120BA2
:103510001F053A431B0B97B27743C01B00D20139FA
:103520009FB27743C91B170C77433E043F0C801BA7
:10353000B941860D8F023E43664329277F1BFE401B
:103540000C3D7746AF40BF1930BCA2B2ABB272435C
:103550007343801A9941220C7243130C1204801A8F
:10356000994102000B000137001BA941F9D2781ED6
:103570000021F0BD0C277F1BFE4077467F0BAF403C
:10358000FF19E0E700245D1C07D0144F7D66396603
:10359000FFE7FFE7FFE7FFE73C6F95B29EB26543A9
:1035A0006643401BB141150C1E0C6543664336044F
:1035B0002F0C3E432D04401BB141994204D202001E
:1035C0000B0020000021F0BD01D19042F7D3801AFA
:1035D000994101349942F2D3F6E70000000000D08F
:1035E000FFFFFFFF48404140484018B41B4B5B6859
:1035F000FC46019308BD04DFBF38001018B4174B18
:103600001B68FC46019308BD00DFC93800109446D2
:10361000134A926F920809D2624618B40F4BDB68C6
:10362000FC46019308BD0CDF813B00100C4AF0B54D
:10363000146E556E576F166F6246FFF7EEFF084A1D
:103640001466556657671667F0BD18B4034B9B6840
:10365000FC46019308BD08DF253A0010400D00200C
:10366000000000D0FFB550404240504059404B4010
:10367000594000E0FFB5154F4C00640D03D0BC422B
:1036800004D10C0314D80020090D09055C00640D59
:1036900003D0BC4204D11C030AD800221B0D1B0519
:1036A00001264B4009D44B4003D58B4200D18242C6
:1036B000FFBD9942FCD19042FFBD0B43DB18034391
:1036C0001343F5D0C9434918FFBD0000FF070000B0
:1036D00000B5FFF7CFFF804100BDC04600B5FFF742
:1036E000C9FF01D9002000BD012000BD00B5FFF7D2
:1036F000B9FF01D9002000BD012000BD00B5FFF7D2
:10370000B1FF804100BD012040054A00121804D8D5
:103710005A00121801D8002070470120704700207D
:10372000704700000021002805D17047C1174840AC
:10373000401AFAD0C90713B5064B1B6898470CBC52
:10374000441CA2401005120B0349091B090519432B
:10375000114310BD180D00201F04000010B54C00CF
:10376000620D8023D218DB00D21A5B057E2A10DDA1
:103770009E3A13DACC170903490819435242D14043
:10378000640001341532202A05DAD0400843604332
:1037900010BD002010BD0846604310BDC80FC01802
:1037A000013810BD18B4044B5B6AFC46019308BD98
:1037B00024DF313D00100000400D002070B51323C0
:1037C0001C78012C0CD0012C13DC022C02DC1F4ACB
:1037D0001F4B9A641F48FFF771FC1F4B186070BDA8
:1037E00000231F2BEFD899001848194A885001333D
:1037F000F7E71A48FFF76AFC05001948FFF766FC6F
:10380000023803789B007F2B19DD802229001048A5
:1038100000F032FC022CD8D1124B1A88B5231B02BF
:103820009A4209D1104B1A88104B9A4204D1104B7E
:103830001A88104B9A42C8D00020FEF7CFF90E4BE1
:103840000E4A32210E48FEF72FF9C0468538001087
:10385000400D00204C330000180D002053440000A0
:103860005346000054380000D83800004946000094
:103870009C38000059460000107D0010B87D0010F3
:10388000707D001007B56046002800D100BE018899
:103890000A0A0230DF2AFAD1C9B2820804D30288A8
:1038A00040880004104300E00068024A5050039032
:1038B00007BD0000400D00200FB403BC0CBCF0B5E8
:1038C0000124E407634000E0F0B50C0DCF0F661E45
:1038D0003605891B640503D3C943404200D3013137
:1038E000640D03D0661CF60A07D0E41B00207F009D
:1038F000791C89078912803C24031D0DDF0F6E1E81
:1039000036059B1B6D0503D3DB43524200D30133C5
:103910006D0D03D06E1CF60A07D0ED1B00227F0050
:103920007B1C9B079B12803D2D032F1B661B58D4CD
:10393000A446202E46DA20371400BC401D00BD40AE
:10394000F24033412A4380185941CB0F05D0C94377
:10395000C043002264425041514162464D0D28D17E
:103960000D0D07D100281FD0241940414941013ACB
:103970000D0DF9D0640006D3013000D30131002CC5
:1039800001D140084000013A0BD4941CE40A04D150
:1039900012051144DB071944F0BDD907204B194328
:1039A00000E0D9070020F0BD0029DDD1002CDBD1DB
:1039B000F0BD0132C6074008CD0728434908002E54
:1039C000E1D0D9E73C2E29DA203E40371400BC4034
:1039D00000D00124F24014431A00BB401C43D3170B
:1039E000ACE7AC46202F08DA20360400B4400D00C6
:1039F000B540F84039412843A5E73C2F0CDA203F79
:103A000040360400B44000D00124F84004430800CC
:103A1000B1400C43C117EAE710001900002494E7F5
:103A20000000F07FF0B50C0D661E3605891BE60A16
:103A30006405640D02D0651CED0A04D0002001214C
:103A40000905803C2403A4461C0D671E3F05DB1BB3
:103A5000E70A6405640D02D0651CED0A04D000225B
:103A600001231B05803C24037740644497B484B24F
:103A700096B27443070C7E43150C6F4380B26843C3
:103A8000361802D3012000043F183004350C001909
:103A90007D41844688B29AB250430C0C62431F0C9D
:103AA0007C438EB27E43921902D301263604A419B8
:103AB0001604170C3618674101BC81B29AB2514303
:103AC000040C62431B0C5C4380B25843121802D3AF
:103AD0000120000424181004130C401863412D1811
:103AE0005E410020474106BC88B293B258430C0C9B
:103AF0006343120C544389B251435B1802D3012132
:103B00000904641819041A0C091862416D18564109
:103B10000020474118BCF902720D1143F0026A0DF2
:103B20001043ED020A0D03D16D1940414941013B9B
:103B3000124E9B1B7600B3420ED26D0007D30130AC
:103B4000002671416646354301D1400840001B05FF
:103B5000C918E4072144F0BD0BDA013306D1013066
:103B600004D101314F0D01D04908F2E7E1070020EF
:103B7000F0BD013631050020EBE70000FF03000037
:103B8000F0B51C0D671E3F05DB1BE70A6405640DDD
:103B900002D0661CF60A04D0002201231B05803CDB
:103BA0002403D0252D060026F6432E661E096E66D8
:103BB000CE0FF619B44649004F0D02D07E1CF60A0E
:103BC00003D000200021403F3F033E1BB600B44419
:103BD000013F7F05C91B49082E6F013676089C02FC
:103BE000950D25437543ED137543AD1301356D10E8
:103BF000F603761B0CB4CC02450D2C43A2B2B3B233
:103C00005A43270C7B43350C6F43A4B26C431B19FA
:103C100002D3012424043F191C041D0CA4187D4167
:103C200024196D41009A91B2ACB26143170C7C43E8
:103C30002B0C5F4392B25A43A41802D30122120400
:103C4000BF182204230C52187B41019C6C431B19A2
:103C5000520ED9010A434401A01A81B2B2B25143B3
:103C600003145A43360C734387B27743D617D219DD
:103C700000277E4136049B191704160C7F185E41FD
:103C80007316ED18F301002680337541A90F06D194
:103C90006400690AE8055B0A184309D22FE0042290
:103CA000944480337541A90AA8059B0A184326D37A
:103CB000404149412404009A019B0D005543641B77
:103CC0004343E41A95B286B27543170C7E43030C46
:103CD0005F4392B25A43B61802D301221204BF18AE
:103CE0003204330C52197B4152429C41002C02D4C5
:103CF0000022013051414008CA071043490802B070
:103D00006246D7079210084BD218084B9A4203D24A
:103D100012058918C919F0BD0020002A01DC3900FC
:103D2000F0BD01331905F5E7FD030000FE070000B3
:103D3000002200B5203200F004F8080000BD0000A9
:103D400000220B150AD410B5944600F031F8141473
:103D5000013400DA0021CB17144C20470020002149
:103D600070476244343A0CD40C2A07DA04009140BC
:103D7000904052422032D440214310BDD843D94311
:103D800010BD203207D40C469440524220321141DB
:103D9000D040204310BD0800C917203203D452423E
:103DA0002032104110BD1800190010BD633D0010F5
:103DB0000A0DCC0F531E1B05C91A520503D3C94364
:103DC000404200D30131520D03D0531CDB0A07D00F
:103DD000121B00206400611C89078912803A1203BB
:103DE000014BD21A70470000FF03000051434343C8
:103DF000C9188C46110C83B24B4310B4040C6143B8
:103E000092B280B2504362431C041B0C001910BCD8
:103E100059411304120CC01851416144704700000D
:103E200048404140484000239C46114B5B6818477E
:103E300000239C460E4B1B6818470E4A936F9B0845
:103E400004D200239C460A4BDB681847F0B5146E79
:103E5000556E576F166FFFF7F4FF064A14665566E6
:103E600057671667F0BD00239C46014B9B681847B7
:103E7000400E0020000000D0C10FC90700D540420D
:103E8000002817D0F44603B40B4B1B68984706BCB8
:103E900081409E384042803107D20B0607D049004E
:103EA000490AC0051043084360470130F8E7490A52
:103EB0008902F5E770470000180D0020034BDB6F07
:103EC000FC4618477CDF014000100000400E002037
:103ED00070B513231D782A48FFF7F8F80400012D68
:103EE00011D0012D09DDA31E1B789B007F2B40DD27
:103EF00080222100234800F0BFF82348FFF7DEF8B6
:103F0000224B186070BD542201001E4800F0B4F826
:103F10001F4B1A881F4B9A421CD1A7239B011A885A
:103F20001D4B9A4216D11D4B1A881D4B9A4211D136
:103F30001C4B1A8894239B019A420BD11A4B1A8866
:103F40001A4B9A4206D11A4B1A681A4B9A4201D15F
:103F5000152307E01848FDF741FE99001748094A64
:103F6000885001331F2BF8D9144A064B1A62DA61C4
:103F7000B7E7134B134A42211348FDF795FDC0469E
:103F800053460000400E00204C330000180D002066
:103F9000EE290000C40F0000C20D0000962B0000A7
:103FA000C0B50000182B0000CC2A000010B500009E
:103FB000FC2C000051ED8764C0800010CD3F001044
:103FC000CC7D0010487E0010007E001007B56046D2
:103FD000002800D100BE01880A0A0230DF2AFAD187
:103FE000C9B2820804D3028840880004104300E06C
:103FF0000068024A5050039007BD0000400E0020A8
:10400000C30FDB0741000A0E07D0FF2A08D00909B9
:10401000054A891819434007704719000020704766
:104020000249C918FAE70000000000380000F07FDC
:1040300010B5040002F070FB002804D00419034BF3
:104040009C4200D810BD0248FDF7C8FD00000420C6
:104050005C7E001010B502F069FB10BD0148042120
:10406000014B184770020020DD300010014B1B6827
:104070001847000070020020014B5B6818470000E1
:104080007002002010B50C00036811002000984752
:1040900010BD0000F8B507000D001600437C002B92
:1040A00002D0002400200CE003681100280098478B
:1040B0002DE03B7C10E0022115483B689847601CCE
:1040C0000134B44214DA002CF3DD2B19013B1B78C8
:1040D0000D3B5A425341DBB22A5D0A2AF0D1002B34
:1040E000EED1A042E7DA211A28183B689847E2E7A8
:1040F000B04203DA311A28183B689847002E06DDD3
:10410000AD19013D2B780D3B5A4253413B74F8BD2C
:10411000CC7E001070B505000368002B16D00C4B48
:104120001C6805E0290004C92000FFF7B3FFE4681C
:10413000002C09D02368002BF9D0064B1B68002BFC
:10414000F0D0A342F3D1EDE700232B6070BDC04651
:10415000F80C0020FC0C002070B505000C000B686A
:10416000802B05D023685A1C2260E418257170BD8D
:104170000800FFF7CFFFF5E710B582B0D0231B068C
:1041800000241C5701A9074802F042FF002806D16D
:10419000019B9C4203D0034802F04AFF012002B079
:1041A00010BDC046080B002010B5024802F018FFF1
:1041B00010BDC046080B0020F0B5C64600B584B05F
:1041C00001900D0016001C00FFF7D6FF80466B1C07
:1041D00005D0002C08D0194F194B1C6807E0019836
:1041E00002F08AFD0500F4E7164FF5E7E468002CBD
:1041F00016D02368002BF9D0134B1B68002B01D07D
:10420000A342F3D12A0001992000B847002EEDD037
:1042100002ABD91D0A230B7001222000B847E5E745
:104220004346002B06D1681E8541E8B204B004BCA9
:104230009046F0BDFFF7B8FFF5E7C0468540001097
:10424000F80C002095400010FC0C0020094A13686F
:10425000002B0BD0834202D00C331A00F7E7002961
:1042600007D1C36813600023C36002E0002900D0B7
:1042700010607047F80C002010B5064B1C6800E079
:10428000E468002C04D06368002BF9D09847F7E766
:1042900010BDC046F80C002070B5050002F02CFDE2
:1042A00004000023012201002800FFF785FFFFF72B
:1042B000E3FF200070BD000070B5A2B004000E0046
:1042C000FFF75AFF05008422002101A8FFF7CEFE68
:1042D0003300220001A90848FEF7D8FE040001A817
:1042E000FFF718FFFFF7C8FF002D02D1200022B012
:1042F00070BDFFF759FFF9E7594100100FB400B541
:1043000083B004A901C90191FFF7D6FF03B008BC2F
:1043100004B0184710B500F083F810BDF0B583B0B5
:1043200000251AE06B4607330D241C70002403E0BF
:104330001F78176001340133002C1CD19769BF0628
:10434000FCD4F5E71E78166001340133002C03D14C
:104350009669B606FCD4F5E701358D4210DA094BB3
:104360001A68465D084BD3185C4263415B00074CFA
:104370001B5FB342D6D06B4607331E700024E5E7BF
:1043800003B0F0BD300D00200080FCBF3C0D0020CC
:10439000F0B583B0070000200EE013682B700134E5
:1043A0000135002C03D19369DB06FCD4F5E76B469D
:1043B00007331B780370300088420ADA084A126813
:1043C000956910242C4004D1461C38186B46DD1D1D
:1043D000E7E7002801D003B0F0BD0338FBE7C04693
:1043E000300D002070B515001C000B4B1860FDF758
:1043F000F9FA002D06DA002C09DA01210748FFF747
:1044000025FF70BD02212800FBF7AEFFF3E7022174
:104410002000FBF7A9FFF0E7300D0020800200200C
:1044200010B5064B1B78064B1B78E12101230022B7
:1044300049020448FFF7D6FF10BDC04618740210A9
:104440001C74021000400340F0B5D64600B582B09F
:1044500082460D000620FDF7D7FC0090022400E004
:104460003C00FE2C1ED8009B01930026A71C38029E
:104470002A0000230021FFF7B9FC002904D1B14232
:10448000EED1019B9842EBD980267600012E0CD903
:10449000771E210079430098FEF764FEA84204D8F5
:1044A0003E00F3E780267600F0E753461C61731E5A
:1044B0001B02524612685340FF2212021340802210
:1044C000520151460A431360310061430098FEF7E0
:1044D00049FE02B004BC9246F0BD000010B50400D5
:1044E000144B984222D080229202134B1A60134B35
:1044F0001A60134B9B6810009843FAD12000FFF715
:10450000A3FF226807235340CF221A4080235B0178
:1045100023431A602200243280239B011A43032183
:10452000116004341C430223236010BD8022520218
:10453000DBE7C04600C0034000E0004000F0004060
:1045400000C00040F0B5DE4657464E464546E0B551
:1045500083B006000CA8007882460D9D30680024C8
:10456000C4663068416031680120C86698460027FB
:1045700000239B46110029E03279002A2FD0012226
:104580002DE05046002801D000202CE001202AE038
:10459000002B0BD13268526BD20607D4002DF7D016
:1045A0000E98A84703000443E4B2F1E7002B09D1B9
:1045B0003268802151588B4600291DD1002C28D10A
:1045C000B9451CD0002C31D10137019947452DDA6E
:1045D0000122524242449146002FCDD00022920245
:1045E000B945CED0002040020243481C0190087813
:1045F000316802430A61D1E7526D012409E0524655
:10460000002ADFD105E0002B0BD13268526B9205F6
:1046100007D4002DF7D00E98A84703000443E4B256
:10462000F1E7002BCED13268126ECBE7002C09D017
:10463000002B14D15B46002B14D0DB0715D45B464E
:104640001B0709D553463371380003B03CBC904674
:104650009946A246AB46F0BD02277F42F2E701270A
:104660007F42EFE702277F42ECE702277F42E9E73C
:10467000F0B5DE4657464E46C0B50500914608AA3D
:1046800012789346099E02680020D0662A6851601D
:104690002A680121D1669A460027002300242AE0D7
:1046A0002979002932D0012130E05846002801D074
:1046B00000202FE001202DE0002C12D12A68926FFB
:1046C000002A0ED12A6880215158546D601E844101
:1046D000E4B2002EF0D00A98B04703000443E4B2DD
:1046E000EAE7002C1DD12A68126949460A70013791
:1046F00001229446E144574513DA5246501E2A6877
:10470000516F1029FBD0002FCAD000218902B84276
:10471000CBD00020400201438020400001431161C2
:10472000D0E7002C03D0002B09D001277F425B4645
:104730002B7138001CBC91469A46A346F0BD022757
:104740007F42F4E7F0B5D6464F464646C0B5050071
:104750000C000520FDF758FB07006008C019210078
:10476000FEF700FD80464600464405213000FEF776
:10477000F9FC814643461B1A9A46274B9C4223D894
:104780007800C0192549FEF7EDFC441C4B46023B5E
:10479000A34220D32B680022DA6629680A68042322
:1047A000534006221A4080235B010B431A602B689A
:1047B0005246DA612B684A461A624F2E11D95021AF
:1047C0003000FEF7CFFC0DE07800C0191449FEF769
:1047D000C9FC441CDAE7134B134A5F211348FDF769
:1047E00063F90120A0232A68D0502A6811007C3187
:1047F000D06F44402404240C80235B010B431C60D5
:104800002B680122DA6641463800FEF7ABFC1CBC7F
:1048100090469946A246F0BD3F420F008096980010
:1048200040787D01247F0010107F0010447F00102D
:1048300010B5114B98421CD01022104B1A60104B2F
:104840001A60104B9B6814009C43231EF9D104711D
:104850000268D46602686624FF3414600268D36379
:1048600002689363883303220468E250FFF76AFF0B
:1048700010BD0822E1E7C0469402002000E000409D
:1048800000F0004000C0004030B585B008AC25788D
:104890000024029401940095FFF754FE05B030BD4A
:1048A00030B585B008AC25780024029401940095B9
:1048B000FFF7DEFE05B030BD0123084A1360084A49
:1048C0001360084B9A6801239343FAD1064B0122E7
:1048D0001A60054B1B68DB05FBD5704700E0004004
:1048E00000F0004000C0004000C00440F0B5CE46DB
:1048F000474680B593B001F08FFE002806D0012016
:10490000404213B00CBC90469946F0BD8348FFF777
:10491000C3FCFFF7D1FF1F211D20FBF725FD00225F
:1049200000211D20FBF738FD00211D20FBF74EFD67
:104930007B4B1A68C0239B015340E022D2011340F5
:10494000784A13607848FFF7A7FC002000F0A4FC29
:10495000764800F0D7FC3C2001F01CFEE12040022C
:10496000FFF766FB0990002800D1D1E0704B5A8810
:1049700019886E4F00970023099800F087FF4120A7
:1049800000F0B8FF380001F09DF8002000F0A2FF11
:10499000380001F097F86748FFF77EFC0224009486
:1049A000012300222921322001F0E4F8009402239F
:1049B00000222E21322001F0DDF800940323002292
:1049C0003321322001F0D6F800940423002238214C
:1049D000322001F0CFF80094052300223D2132203F
:1049E00001F0C8F8002602960194534D0095462325
:1049F0005A2228213C2001F02DF9029601940095BD
:104A000028235A2246213C2001F024F902960194E1
:104A1000F8231B029846009346235A2228213C2063
:104A200001F0AAF90125029501941F2399460093EC
:104A3000273382222821642001F09EF902950195F6
:104A40003E4C00943723A5223721872001F002F93C
:104A5000029501950094462396222821962001F084
:104A6000F9F8FC24E4000196009523000F22372179
:104A7000962001F0E5F90195009523000F223721DA
:104A8000B92001F0DDF903960297032301932C4C22
:104A900000942C4A2C4B5021322001F091FC2B4BDE
:104AA00001930F2300932300294A6421322001F04F
:104AB0004FFB4B4601930097264B274A7821322023
:104AC00001F08AFB019743460093244B244AA1211D
:104AD000322001F03DFB099D280000F045FCFA243E
:104AE000A400200001F076FDF023009300220021B5
:104AF0001C4801F0ADFC280000F036FC200001F05D
:104B000069FD0B9600F00AFE1748FFF7C5FB23E18D
:104B10001648FFF7C1FB0020FCF7C2FF847F00109E
:104B200000C0044000D004409C7F0010FFFF000044
:104B3000400F0020DC7F00101FF80000FF7F000006
:104B4000B002002033F68845CAC02340F0FF0000C1
:104B5000E87F0010B8020020EC7F0010A8020020BF
:104B6000F87F00101481001004800010B47F001042
:104B70007D4B5E683604360C3000FFF77DF97B49CB
:104B8000FFF771F9FFF79AF90490059102000B0005
:104B900031007748FFF7B2FB764D280000F092FF16
:104BA0000BAA0CA90FAB180000F0DCFC109C119EA6
:104BB0000F98FFF783F906900791301CFFF77EF9F5
:104BC00002900391201CFFF779F900900191069A59
:104BD000079B6948FFF792FB0D9C0E9E0C98FFF710
:104BE0006DF906900791301CFFF768F90290039168
:104BF000201CFFF763F900900191069A079B5F481C
:104C0000FFF77CFB0B995E48FFF778FB5D4F0024B4
:104C1000019400953B005C4A32211E2001F098FA75
:104C2000019400953B00594A4B211E2001F090FA57
:104C3000019400953B00564A64211E2001F088FA39
:104C4000019400953B00534A7D211E2001F080FA1B
:104C5000019400953B00504A96211E2001F078FAFD
:104C60004E4E019400953B003200AF211E2001F012
:104C70006FFA019400953B003200AF211E2001F035
:104C800067FA0F98FFF71AF902000B0003950294D8
:104C90000226019600973221782001F091FB109BAB
:104CA0000693181CFFF70AF902000B000395029403
:104CB000019600974B21782001F082FB1198FFF7B5
:104CC000FDF802000B000395029401960097642101
:104CD000782001F075FB0C98FFF7F0F802000B004C
:104CE00003950294019600977D21782001F068FBDE
:104CF0000D9B0693181CFFF7E1F802000B000395CB
:104D00000294019600979621782001F059FB0E98A5
:104D1000FFF7D4F802000B00039502940196009768
:104D2000AF21782001F04CFB019400953B001C4A18
:104D3000C821322001F00CFA0395029401960097E5
:104D4000049A059BC821822001F03AFB099800F0E3
:104D50000BFB642001F03EFC124B04221A60024B54
:104D60001B68DB05FBD503E700C004403333D33AAF
:104D700014800010FFFF00003880001074800010C5
:104D8000B0800010A8020020C4800010D080001065
:104D9000DC800010E8800010F4800010008100101A
:104DA0000C81001000E0044010B501210C2001F03E
:104DB0008BFB642001F00EFC00210C2001F084FB31
:104DC000642001F007FC01210C2001F07DFB002193
:104DD000092001F079FB642001F0FCFB10BD10B547
:104DE00004000021082001F06FFB200001F078FB97
:104DF00010BD10B504000121082001F065FB200062
:104E000001F06EFB10BD000010B50A4B18710028B0
:104E10000AD1F0225A801A80C8243620FFF7DFFF1B
:104E20002000FFF7E6FF10BD024BF0225A801A80E7
:104E30006824F2E7400F002010B5EF20FFF7CFFF06
:104E4000EB20FFF7CCFF1420FFF7D3FFFE20FFF786
:104E5000C6FFEF20FFF7C3FFEB20FFF7C0FF1420D2
:104E6000FFF7C7FF8420FFF7BAFF4020FFF7C1FF1D
:104E70008520FFF7B4FFFF20FFF7BBFF8620FFF779
:104E8000AEFFFF20FFF7B5FF8720FFF7A8FFFF2049
:104E9000FFF7AFFF8820FFF7A2FF0A20FFF7A9FF67
:104EA0008920FFF79CFF2120FFF7A3FF8A20FFF74F
:104EB00096FF0020FFF79DFF8B20FFF790FF8020DB
:104EC000FFF797FF8C20FFF78AFF0120FFF791FF84
:104ED0008D20FFF784FF0120FFF78BFF8E20FFF767
:104EE0007EFFFF20FFF785FF8F20FFF778FFFF2071
:104EF000FFF77FFFB620FFF772FF0020FFF779FF73
:104F00002020FFF776FF3620FFF769FF0820FFF724
:104F100070FF3A20FFF763FF0520FFF76AFF90203C
:104F2000FFF75DFF0820FFF764FF0820FFF761FF30
:104F30000820FFF75EFF0820FFF75BFFBD20FFF7AB
:104F40004EFF0620FFF755FFBC20FFF748FF00206B
:104F5000FFF74FFFFF20FFF742FF6020FFF749FFF9
:104F60000120FFF746FF0420FFF743FFC320FFF7B0
:104F700036FF1320FFF73DFFC420FFF730FF13205B
:104F8000FFF737FFC920FFF72AFF2220FFF731FF85
:104F9000BE20FFF724FF1120FFF72BFFE120FFF7D2
:104FA0001EFF1020FFF725FF0E20FFF722FFDF2056
:104FB000FFF715FF2120FFF71CFF0C20FFF719FF5B
:104FC0000220FFF716FFF020FFF709FF4520FFF74B
:104FD00010FF0920FFF70DFF0820FFF70AFF082048
:104FE000FFF707FF2620FFF704FF2A20FFF701FF46
:104FF000F120FFF7F4FE4320FFF7FBFE7020FFF7E0
:10500000F8FE7220FFF7F5FE3620FFF7F2FE37209C
:10501000FFF7EFFE6F20FFF7ECFEF220FFF7DFFE59
:105020004520FFF7E6FE0920FFF7E3FE0820FFF723
:10503000E0FE0820FFF7DDFE2620FFF7DAFE2A203B
:10504000FFF7D7FEF320FFF7CAFE4320FFF7D1FE9C
:105050007020FFF7CEFE7220FFF7CBFE3620FFF761
:10506000C8FE3720FFF7C5FE6F20FFF7C2FEED2018
:10507000FFF7B5FE1B20FFF7BCFE0B20FFF7B9FEC4
:10508000AE20FFF7ACFE7720FFF7B3FECD20FFF791
:10509000A6FE6320FFF7ADFE7020FFF7A0FE0720FD
:1050A000FFF7A7FE0720FFF7A4FE0420FFF7A1FEED
:1050B0000E20FFF79EFE0F20FFF79BFE0920FFF753
:1050C00098FE0720FFF795FE0820FFF792FE0320C9
:1050D000FFF78FFEE820FFF782FE3420FFF789FEFE
:1050E0006220FFF77CFE1820FFF783FE0D20FFF7FC
:1050F00080FE7120FFF77DFEED20FFF77AFE702025
:10510000FFF777FE7020FFF774FE1820FFF771FE9F
:105110000F20FFF76EFE7120FFF76BFEEF20FFF709
:1051200068FE7020FFF765FE7020FFF762FE6320C7
:10513000FFF755FE1820FFF75CFE1120FFF759FE20
:105140007120FFF756FEF120FFF753FE7020FFF7A6
:1051500050FE7020FFF74DFE1820FFF74AFE132087
:10516000FFF747FE7120FFF744FEF320FFF741FEF3
:105170007020FFF73EFE7020FFF73BFE6420FFF734
:105180002EFE2820FFF735FE2920FFF732FEF12002
:10519000FFF72FFE0120FFF72CFEF120FFF729FE7D
:1051A0000020FFF726FE0720FFF723FE6620FFF70B
:1051B00016FE3C20FFF71DFE0020FFF71AFECD2053
:1051C000FFF717FE6720FFF714FE4520FFF711FEDB
:1051D0004520FFF70EFE1020FFF70BFE0020FFF723
:1051E00008FE0020FFF705FE0020FFF702FE672003
:1051F000FFF7F5FD0020FFF7FCFD3C20FFF7F9FD70
:105200000020FFF7F6FD0020FFF7F3FD0020FFF779
:10521000F0FD0120FFF7EDFD5420FFF7EAFD10201F
:10522000FFF7E7FD3220FFF7E4FD9820FFF7E1FDEF
:105230007420FFF7D4FD1020FFF7DBFD8520FFF77A
:10524000D8FD8020FFF7D5FD0020FFF7D2FD00201C
:10525000FFF7CFFD4E20FFF7CCFD0020FFF7C9FD83
:105260009820FFF7BCFD3E20FFF7C3FD0720FFF7A6
:10527000C0FD3520FFF7B3FD2120FFF7B0FD112061
:10528000FFF7ADFD782001F0A5F92920FFF7A7FD74
:10529000142001F09FF910BD10B50400FFF784FD44
:1052A0002000FFF7B1FDFFF7C7FD10BDF8B5040002
:1052B0000E0015001F002A20FFF791FD0020FFF7C8
:1052C00098FDE0B2FFF795FD6C1E2412E4B22000B9
:1052D000FFF78FFD013DE8B2FFF78BFD2B20FFF7B5
:1052E0007EFD0020FFF785FDF0B2FFF782FD200074
:1052F000FFF77FFD013FF8B2FFF77BFD2C20FFF7A2
:105300006EFDF8BD10B5164CA5440102000A084315
:1053100080B20023134A934205D85A00694650527E
:1053200001339BB2F6E7F023F02200210020FFF7C3
:10533000BDFF0121082001F0C7F80024EF2C0BD895
:1053400023011B1B180140006844F021490001F0B3
:10535000D5F80134A4B2F1E7E1235B029D4410BD0E
:10536000003EFEFFFFE0000070B50500F023F022D4
:1053700000210020FFF79AFF0121082001F0A4F886
:105380000024EF2C0AD823011B1B58012818F021F8
:10539000490001F0B3F80134A4B2F2E770BD000097
:1053A00070B506000D0000235C1C042B07D8054BCC
:1053B00018782A00310001F0ABF82300F4E7002050
:1053C00070BDC046A402002010B504001300044ABA
:1053D00010780A00210001F0ADF8002010BDC04691
:1053E000A402002010B582B0102827D008D92028A8
:1053F00029D030282CD11D4A80242401148005E0B6
:10540000002825D1194A8024E4011480012B25D0DD
:1054100008436B46D8716B46DC1DD9790320FFF732
:10542000BFFF012221000620FFF7CEFF00232370DB
:1054300000210620FFF7B4FF02B010BD0B4A802404
:10544000A4011480E2E7094A802464011480DDE7A6
:10545000064A8020400110802020D7E708438021A1
:10546000494208436B46D871D5E7C046340D002049
:1054700010B582B0302841D00AD9502842D011D975
:10548000602843D0702809D1254A0824148013E0ED
:10549000102829D020282CD0002809D0204A4020CC
:1054A000108009E04028F9D11D4A4024148003E00F
:1054B0001B4A8024E4001480012B2BD008436B4648
:1054C000D8716B46DC1DD9790420FFF769FF0122F2
:1054D00021000620FFF778FF00232370002106201B
:1054E000FFF75EFF02B010BD0D4A8024A4001480B7
:1054F000E2E70B4A802464001480DDE7084A802438
:105500001480D9E7064A20241480D5E7044A1024E1
:105510001480D1E70843813B18436B46D871D0E72C
:10552000360D002010B501430520FFF739FF10BDEF
:1055300070B505000A4CA178607800230122FFF7BE
:1055400051FF2179E07800230122FFF791FFA17933
:10555000E079FFF7E7FF29000720FFF721FF70BD83
:10556000780C0020F0B5DE4657464E464546E0B57D
:1055700087B082468946141E18D0032202A9302023
:10558000FFF722FF02AB9B781B0402AA527812029B
:10559000134302AA12781343424A12689A4200D374
:1055A00077E0404A13603F4B1B68236003AC0C223A
:1055B00021003520FFF708FF6078000223781843A8
:1055C00000B2E3781B02A27813431BB298466779B6
:1055D0003F0223791F433FB2E6793602A3791E4387
:1055E00036B2657A2D02237A1D432DB2E37A1B026F
:1055F000A27A13431BB29B46FEF73EFC2A49FEF7F4
:1056000032FC0190294B1888FEF736FC041C011C63
:105610000198FEF712FC534618604046FEF72CFC3A
:105620002149FEF720FC211CFEF707FC5346586079
:105630003800FEF721FC1C49FEF715FC211CFEF783
:10564000FCFB534698603000FEF716FC061C184B16
:105650001888FEF711FC041C011C301CFEF7EDFB42
:105660004B4618602800FEF707FC211CFEF7E5FBFF
:105670004B4658605846FEF7FFFB211CFEF7DDFB4A
:105680004B46986007B03CBC90469946A246AB4654
:10569000F0BD9B1A8022520494466344014A136071
:1056A00081E7C046040D002000007A44340D00203C
:1056B000360D002010B5030701D5032318430F2131
:1056C00001400820FFF76CFE10BD70B5040005789E
:1056D0002B070BD4EB070DD423789B0711D4237829
:1056E0005B0715D42800FFF7E5FF70BD4079FFF791
:1056F0001FFFF4E78178407800230122FFF772FE54
:10570000EAE72179E07800230122FFF7B1FEE6E71E
:10571000A179E079FFF706FFE4E7000070B582B0F9
:1057200000236A46D3716A4693714B4B1A8801ABCA
:105730001A80002603E0052A1DD00136F6B2012E9C
:1057400019D801AB9A5D454B1A7000236A4607329F
:105750001278052AEFD05D1C042BECDC6B46DC1DB7
:10576000012221000020FFF72FFE21783C48FEF7A0
:10577000C5FD2B00EAE701226B46991D0120FFF7CA
:1057800023FE6B46DA79052A05D03648FEF784FDFC
:10579000002002B070BD6B4606331B782F49097894
:1057A0003148FEF7ABFD60210220FFF7F9FD2F48DD
:1057B000032303702022427083702032C270037171
:1057C00083710025C57104334371FFF77EFF6B467B
:1057D000DC1CDD70012221000220FFF7F5FD21789D
:1057E0002348FEF78BFD012221000320FFF7ECFD8B
:1057F00021782048FEF782FD012221000420FFF7D6
:10580000E3FD21781C48FEF779FD012221000520E7
:10581000FFF7DAFD21781948FEF770FD012221001B
:105820000620FFF7D1FD21781548FEF767FD01221C
:1058300021000720FFF7C8FD21781248FEF75EFD22
:10584000012221000820FFF7BFFD21780E48FEF756
:1058500055FD01209DE7C04614430210A40200201C
:10586000184302105844021038430210780C0020EC
:105870007843021098430210B8430210D843021034
:10588000F8430210184402103844021030B503AC3B
:1058900025880F4C206021816281A5810220E08251
:1058A00048070ED1CC080A4844828282C381002472
:1058B0000482002B08D0B42B06D0054B9A80D980E7
:1058C00005E0CC080134EEE7014B9980DA8030BD69
:1058D000480F0020002807D05A2805D0B42803D04C
:1058E00087235B00984201D1014BD8817047C046A5
:1058F000480F002002280BD0042815D010281FD0F4
:1059000041280DD1144BD8821A8952005A8207E0DF
:10591000114BD8821B895A0703D1DB080E4A5382E8
:105920007047DB080133F9E70B4BD8821B899A07D4
:1059300003D19B08084A5382F2E79B080133F9E739
:10594000054BD8821B89DA0703D45B08024A5382CD
:10595000E6E75B080133F9E7480F002030B5584B04
:105960009B88834223D3564BDB888B421FD3544BF7
:10597000DB895A2B1CD00DD9B42B21D0872464008D
:10598000A34214D14E4B5B891B1A9BB2013B08000A
:1059900099B201E0002B0AD1494B1B8A012B1BD085
:1059A0001CB2002C1ED0022B3AD0032B3FD030BDAE
:1059B000434B1B895B1A9BB2013B010098B2EBE79A
:1059C0003F4C2389181A80B2013880B26389591A72
:1059D00089B2013989B2DFE7394B1B89181A80B2C5
:1059E000013880B2364B1B898342E0D3344B5B894C
:1059F0008B42DCD3324BDB8A022B24D0042B32D0F7
:105A0000102B46D0412BD2D140002D4B5C8A6143F4
:105A10004018110A1C6821541B6801301A54C6E74B
:105A2000274B5B89591A89B2013989B2DAE7244CCC
:105A30002389181A80B2013880B26389591A89B251
:105A4000013989B2CEE7C3089BB21D4C628A51432B
:105A50005B182168C9180C78072210408023034185
:105A600023430B70A3E783089BB2154D6C8A6143F7
:105A70005B18032422402968C9180B782040400095
:105A8000BD340441A3435BB29201024113430B7046
:105A90008DE743089BB20A4D6C8A61435B18296805
:105AA000C9180B780F2422400E3C20408000EF34B0
:105AB0000441A3435BB21201024113430B7076E72A
:105AC000480F002070B52A4BDB8A022B19D0042B1B
:105AD00019D0102B30D0412B48D070BD0134A4B266
